:020000040800F2
:10000000486A0020110300087D1C0008D31B00086B
:10001000791C00087D1A00088F21000800000000EC
:10002000000000000000000000000000790200084D
:10003000811A000800000000BD020008011F00082E
:100040002B0300082B0300082B0300082B030008D8
:100050002B0300082B0300082B0300082B030008C8
:100060002B0300082B0300082B0300082B030008B8
:100070002B0300082B0300082B0300082B030008A8
:100080002B0300082B0300082B0300082B03000898
:100090002B0300082B0300082B0300082B03000888
:1000A0002B0300082B0300082B0300082B03000878
:1000B0002B0300082B0300082B0300082B03000868
:1000C0002B0300082B0300082B0300082B03000858
:1000D0002B030008691F00082B0300082B030008EE
:1000E0002B0300082B0300082B0300082B03000838
:1000F0002B0300082B0300082B0300082B03000828
:100100002B0300082B0300082B0300082B03000817
:100110002B0300082B0300082B0300082B03000807
:100120002B0300082B0300082B0300082B030008F7
:1001300000F002F800F090F80AA090E8000C824469
:100140008344AAF10107DA4501D100F085F8AFF246
:10015000090EBAE80F0013F0010F18BFFB1A43F0A5
:10016000010318474844000068440000103A24BFC7
:1001700078C878C1FAD8520724BF30C830C144BF0C
:1001800004680C607047000000230024002500264E
:10019000103A28BF78C1FBD8520728BF30C148BFEA
:1001A0000B6070476E2900F01083702900F069849D
:1001B000662904F08D81652904F08A81672904F09D
:1001C00087816129AFF3008003681B0A28BF41F0D3
:1001D0008001692900F0F880642900F0F580752914
:1001E00000F0F2806F2900F0F783782900F0358461
:1001F000E92900F09183E42900F08E83F52900F0CD
:100200008B83EF2900F0F483F82900F0348403682D
:10021000DB0928BF41F08001632900F012837329B4
:1002200000F01783E32900F0E786F32900F0EC865D
:10023000002070471FB500F05FFF04000020002180
:1002400004F030F9401C60600020002104F014F933
:10025000E0601FBD10B510BD00F021FF1146FFF793
:10026000E9FF02F02DF800F0F9FF03B4FFF7F2FF09
:1002700003BC01F041F80000224B19680868B0E89F
:10028000F00F80F30988BFF36F8F4FF0000080F309
:1002900011884EF00D0E70470000000006480068FF
:1002A000006880F3088862B661B6BFF34F8FBFF372
:1002B0006F8F00DF00BF00BF08ED00E0EFF30980A3
:1002C000BFF36F8F0F4B1A6820E9F00F106008B56D
:1002D0004FF0500080F31188BFF34F8FBFF36F8F43
:1002E00003F0D6F94FF0000080F31188BDE8084014
:1002F00019680868B0E8F00F80F30988BFF36F8FC2
:10030000704700BF30000020EFF305807047000009
:100310000948804709480047FEE7FEE7FEE7FEE799
:10032000FEE7FEE7FEE7FEE7FEE7FEE704480549D5
:10033000054A064B70470000091F000831010008FC
:1003400048640020486A0020486600204866002073
:100350001CB50C46064B7B4469460090204600F0D5
:100360004EFA04460020694600F05CFA20461CBDA7
:10037000CB04000070B50C460546012A05D028784C
:10038000800600D5EA69002302E0012305E05B1C3A
:10039000934202D2E05C0028F9D1A869E618C01A9D
:1003A000A861286A18442862284600F07CF904E015
:1003B000D5E9012114F8010B9047B442F8D328463F
:1003C00000F087F970BD00002DE9F04106460024D9
:1003D00010687529314616A510D000F08BF9002859
:1003E00002DA404213A507E031688A0701D512A559
:1003F00002E0490704D511A5012401E000F083F9CA
:1004000000210A2206F1240709E0B0FBF2FCB0FB50
:10041000F2F302FB1C00303078541846491C0028C7
:10042000F3D123462A463046BDE8F04100F074B9C6
:10043000000000002D0000002B0000002000000044
:100440002DE9F05F894604464FF0000ADFF874B1E9
:10045000FB44C0F820A02046E1688847002874D0FB
:10046000252806D0D4E901219047206A401C20624B
:10047000F1E700265F462046E168884720280546C8
:1004800007DB312D05D2781910F8200C08B106438E
:10049000F1E7B00701D526F00406C4F81CA0002738
:1004A000C4F818A02A2D09D0284601F001FF38B35E
:1004B00004EB8708303DC8F8185019E059F8041BC0
:1004C000204604EB87029161E1688847012F0546C9
:1004D00018D1E069002820DA26F020061DE0D8F8BF
:1004E000180000EB800005EB40003038C8F8180019
:1004F0002046E1688847054601F0DAFE0028EED183
:10050000012F0AD02E2D08D12046E16888477F1C94
:100510000546022F46F02006C4DBA069002803DA56
:10052000404246F00106A061F00701D026F0100617
:100530006C2D0BD0682D09D04C2D39D06A2D35D0BB
:10054000742D35D07A2D33D016E038E0E1682F468F
:1005500020468847B842054609D16C2F26D04FF473
:100560008060E168064320468847054604E06C2F1A
:100570001AD04FF4807006430DB3A5F1410019283D
:1005800002D8203546F400664A46294620462660B1
:100590004E46FFF707FE80B101280BD0F61D26F06E
:1005A000070000F1080956E74020E4E78020D8E77B
:1005B0000020D6E706F104094DE7284652E7206AF5
:1005C000BDE8F09F8040000010B5431C02E010F829
:1005D000011B71B18107FAD14FF0013202C88C1AA8
:1005E0008C4314EAC211F9D0C01A0A0603D0C01E07
:1005F00010BDC01A10BD0A0401D0801E10BD090232
:10060000FCD0401E10BD032A40F2308010F0030CD5
:1006100000F0158011F8013BBCF1020F624498BF55
:1006200011F801CB00F8013B38BF11F8013BA2F1F2
:10063000040298BF00F801CB38BF00F8013B11F06D
:10064000030300F02982083AC0F0088051F8043B07
:10065000083A51F804CBA0E80810F5E7121D5CBF7A
:1006600051F8043B40F8043BAFF30080D20724BFAD
:1006700011F8013B11F801CB48BF11F8012B24BF41
:1006800000F8013B00F801CB48BF00F8012B704790
:1006900002F0FF0343EA032242EA024200F030BACA
:1006A00070477047704770B5044685690068C10699
:1006B00001D5302600E02026C00707D070BDD4E960
:1006C000012130469047206A401C20626D1EF6D5FD
:1006D00070BD70B5044685690078C00707D170BD4C
:1006E000D4E9012120209047206A401C20626D1E21
:1006F000F6D570BD09684A0501D540B27047C905F5
:10070000FCD500B2704709684A0501D5C0B27047F0
:10071000C905FCD580B270472DE9F0470D469946D2
:100720009246044600F124080168880604D5E06971
:1007300021F01001216000E00120A84201DD471BEB
:1007400000E00027A1697A1902EB0900081AA061EC
:100750002078C00602D42046FFF7A5FF002608E057
:10076000D4E901211AF806009047206A401C761C43
:1007700020624E45F4DB2078C0060AD52046FFF7FC
:1007800092FF06E0D4E9012130209047206A401C06
:100790002062381EA7F10107F4DC07E0D4E901214B
:1007A00018F805009047206A401C2062281EA5F119
:1007B0000105F3DC2046FFF78CFF2078000602D508
:1007C0000220BDE8F0870120FBE711680268006A9B
:1007D000530501D508700AE0D30501D5088006E06D
:1007E000130603D5C217C1E9000200E0086001202A
:1007F0007047000001694A1C02610878704700B523
:100800008FB0CDE901310021059105497944CDE949
:10081000031011466846FFF713FE0FB000BD00003D
:10082000E5FFFFFF0A6802F8010B0A60704710B588
:10083000436913B1AFF3008001E0FFF79BFD012096
:1008400010BD127800F124010A7000224A700122C2
:10085000EDE711684FF0FF32E9E700002DE9FF5F97
:1008600015468A460446DFF8AC80F8440027D8E9EC
:1008700000103E46CDE9001010E03AF816106A4626
:1008800002A800F0C5FB411C07D02178890603D5DA
:10089000E269391891420DD80744761C2078800609
:1008A00002D5E069B84205DDAE42E6DB3AF8160053
:1008B0000028E2D1A069C01BA0612046FFF7F3FE2B
:1008C000D8E90010CDE90010002017E03AF8181020
:1008D0006A4602A800F09CFBB0F1FF3F81460BD0B6
:1008E00000250DF1080B05E0D4E901211BF80500F6
:1008F00090476D1C4D45F7D308F10100B04280468A
:10090000E4DB206A384420622046FFF7E2FEBDE8BF
:10091000FF9F00007A3C00002DE9F0418046D21D87
:1009200022F007020025D2E90002F52915A614D00D
:10093000011E72F1000106DA0023D0EB030063EB25
:10094000020211A608E0D8F800108B0701D50FA607
:1009500002E0490701D50EA601251146002408F141
:10096000240704E000F0ECF830323A55641C50EAF9
:100970000102F7D12B46324621464046BDE8F04100
:10098000FFF7CABE000000002D0000002B00000091
:100990002000000030B4002100F1240408E002F03F
:1009A0000705D208303542EA4372DB086554491C1A
:1009B00052EA0305F3D10468002310A2250708D5E5
:1009C00004F020040C4304D0C46901230CA2641E6B
:1009D000C46130BCFFF7A0BE10B5044621461068C4
:1009E000FFF791FE02462046BDE810400023D1E704
:1009F000D21D22F00701D1E90023CBE7000000005F
:100A000030000000F0B40D460188090502D5214CE4
:100A10007C4402E01F4C7C440E34002100F124068B
:100A200008E002F00F071209E75D42EA03721B09B2
:100A30007754491C52EA0307F3D1027800231207C6
:100A400004D5702D06D009B1022311342246F0BC22
:100A5000FFF762BE01231034F8E770B504460D4677
:100A600021461068FFF74FFE024629462046BDE8A2
:100A700070400023C6E7D21D22F00703D3E900230C
:100A8000C0E70368126843F0200303600823C361D2
:100A90000023B7E7DC3A000010B5203AC0F00B8025
:100AA000B1E81850203AA0E81850B1E81850A0E872
:100AB0001850BFF4F5AF5FEA027C24BFB1E81850CC
:100AC000A0E8185044BF18C918C0BDE810405FEA3C
:100AD000827C24BF51F8043B40F8043B08BF7047B8
:100AE000D20728BF31F8023B48BF11F8012B28BFBD
:100AF00020F8023B48BF00F8012B70474FF000027E
:100B00000429C0F0128010F0030C00F0A382CCF195
:100B1000040CBCF1020F18BF00F8012BA8BF20F88D
:100B2000022BA1EB0C0100F095BA5FEAC17C24BF57
:100B300000F8012B00F8012B48BF00F8012B70478B
:100B400030B5B0F10A024FEA900E71F100034EEA9F
:100B5000817EB0EB0E0061EB91014FEA101E4EEA70
:100B6000017E10EB0E0041EB11114FEA102E4EEA00
:100B7000016E10EB0E0041EB11214FEA104E4EEAD0
:100B8000014E10EB0E0041EB1141401841F1000104
:100B90004FEAD00040EA41704FEAD10110EB8005E6
:100BA0004FEA810444EA907444EB01046D1944EB6C
:100BB0000404521BA3414FF0000348BF0A3200D582
:100BC00030BD401C41F1000130BD70472DE9FF4FA1
:100BD0000C461E464FF0FF378BB0D2E90001DDF81E
:100BE00060800A908A46C1F30A5505B93D46002146
:100BF00008464FF00000BAF1000F00F4400005DA9B
:100C000000EB80004FF4400101EA50004FEA905998
:100C1000B9F1010F00DDB9460A9850EA4A000ED03A
:100C200044F61050A5F2FF3545432F14B8F1000FDC
:100C30001ED07542291E1EDDC9F100021CE0B8F16C
:100C4000010F4FF0000001D0302103E0F24305E036
:100C50002154401CB042FBDB3046002200212154CD
:100C60000B99C1F80880C1E900200FB0BDE8F08FF2
:100C7000BD1B6D1CDEE74A4600DA694206A800F09B
:100C80007FFA06AB93E8070003AB83E80700504602
:100C90000A9900F038FB8DE80700A0F500501F38D6
:100CA00000900398002D09DD42F21F014A460844D6
:100CB00003A90390684600F097FD08E0A0F50050F6
:100CC0004A461F3803A90390684600F0A1FD8DE84D
:100CD00007000004000C03D04FF0FF30410800E093
:100CE0001046B8F1000F03D00022009215461EE016
:100CF000751E05D4FFF724FF303262556D1EF9D5FD
:100D0000B3460122084302D000227F1C04E0207871
:100D1000302801D100227F1E002A099786D01DE0CD
:100D2000112D07DAFFF70CFF303262556D1C50EAC7
:100D30000102F5D1084302D00098C8B10EE00021AD
:100D4000681E05E0235C625C63542254401E491C0B
:100D50008142F7DBAB46A81B401E0990002004F837
:100D60000B000B98099AC0F80880C0E9002B7CE7BB
:100D700011264FF0000859E72DE9F04F8846044648
:100D8000D21D22F0070191B0D1E90001CDE90A019D
:100D900001F07AFA02460B98C00F01D02D2007E02F
:100DA0002068810701D52B2002E0202101EAC00044
:100DB000032A099001D0072A05DB03464146204655
:100DC00000F09EF90BE12078800601D5E06900E093
:100DD0000620B8F1650F814606D0B8F1660F18D02D
:100DE000B8F1670F70D131E00020B9F1110F009018
:100DF00001DB112301E009F101030AAA01A90CA8F2
:100E0000FFF7E4FEDDE90C70002609F101058346D9
:100E100047E001204B4600904FF000470AAA01A985
:100E20000CA8FFF7D3FEDDE90DB00C995D46002656
:100E300010B909F101000D18B9EB050003D4C0F198
:100E4000FF3609F10105A5EB09002BE0B9F1010F0F
:100E500001DA4FF001090020B9F1110F0090484666
:100E600001DD112300E003460AAA01A90CA8FFF73F
:100E7000ADFEDDE90C704D46002683462078000764
:100E80000AD4AB4500DA5D4601A8012D04DD411905
:100E900011F8011C302907D04F4502DA17F1040F71
:100EA00004DA012082460FE06D1EEEE7002F02DC1F
:100EB000ED1B3E4403E0781CA84200DD7D1CB81BFE
:100EC00000F1010A4FF000472078000703D4AA453B
:100ED00001DB4FF0FF3A0021B7F1004F0DF143085D
:100EE0008DF8431024D002202B23002F01DA7F42FB
:100EF0002D230A21021EA0F1010000DC5FB197FB47
:100F0000F1FC97FBF1F201FB1C7C17460CF1300C55
:100F100008F801CDEEE7A8F101000370218809056A
:100F200001D5452100E06521A0F1010800F8011C70
:100F300009980FA9A1EB0807FF1D00B10120411975
:100F400001EBEA70A1693844081A401EA0612078BC
:100F5000C00602D42046FFF7A6FB099828B1D4E9C1
:100F600001219047206A401C20622078C00622D5CB
:100F70002046FFF798FB1EE0002E04DBB34502DDA0
:100F800001A8805D00E03020D4E901219047206A6B
:100F9000401C2062761CAAF101005FEA000A0AD117
:100FA00000F0AAF8C0680168405CD4E901219047CC
:100FB000206A401C2062281EA5F10105DCDC07E048
:100FC000D4E9012118F8010B9047206A401C2062E7
:100FD000381EA7F10107F3DC2046FFF77AFB032058
:100FE00011B043E610B5436913B1AFF3008001E0DF
:100FF000FFF734FC012010BD128800F12401828427
:101000000022C2840122EDE711684FF0FF32E9E7C8
:1010100070B516460C46054600F066F8036893F86E
:101020000101012806D0FF2C0FD8185D68B10120FE
:101030002C7070BDD3F807013246214603F2071326
:1010400003442846BDE8704018474FF0FF3070BD9C
:101050004FF0000200B5134694469646203922BF51
:10106000A0E80C50A0E80C50B1F12001BFF4F7AF9C
:10107000090728BFA0E80C5048BF0CC05DF804EB7E
:10108000890028BF40F8042B08BF704748BF20F8EC
:10109000022B11F0804F18BF00F8012B70477546E6
:1010A00000F0E6F8AE4605006946534620F007001A
:1010B000854618B020B5FFF739F9BDE820404FF05C
:1010C00000064FF000074FF000084FF0000B21F032
:1010D0000701AC46ACE8C009ACE8C009ACE8C009FF
:1010E000ACE8C0098D46704710B500F005F8001D4A
:1010F00010BD00BFB13300000048704708640020F5
:101100002DE9F0411F46044603260168072A01F431
:10111000006004DB08B116A505E016A503E008B1E0
:1011200015A500E015A521F010002060A069C01EE3
:10113000A0610FB1401EA0612046FFF7B4FA4FB185
:10114000D4E9012138469047206A401C2062C01C27
:10115000206206E0206AFAE7D4E9012115F8010BC4
:101160009047761EF8D22046FFF7B3FABDE8F0812B
:101170004E414E006E616E00494E4600696E66003B
:101180002DE9F047814616468AB0334878440DC8A9
:101190008DE80D0030487844801C03AC0DC884E80D
:1011A0000D0041F69B300844372190FBF1F290FB93
:1011B000F1F5A5F1800501FB12041B3C02D5644248
:1011C000012000E00020DFF890A080460027FA44CC
:1011D000AAF1BE0A0DE0E00709D03246684607EBE7
:1011E00047010AEB810100F013FB8DE80700641052
:1011F0007F1C002CEFD1184F7F44AC3F18E0E8076C
:1012000014D007EB04100DF1180A90E80E008AE8DC
:101210000E00C068F04201D198190890324606A924
:1012200003A800F0F5FA03AB83E807006D10641C17
:10123000002DE4D132466946B8F1000F03A802D070
:1012400000F0D2FA01E000F0E3FAC9E90001C9F8C0
:1012500008200AB0BDE8F0870434000010B5044649
:10126000AFF300802046BDE81040FEF7FEBF00004F
:1012700000487047E86300204FF0013C50F8042B11
:1012800051F8043B9A4221D1A2EB0C03934313EA99
:10129000CC1317D150F8042B51F8043B9A4215D1C6
:1012A000A2EB0C03934313EACC130BD150F8042B9D
:1012B00051F8043B9A4209D1A2EB0C03934313EA81
:1012C000CC13DBD04FF00000704700BFD01A01BA3A
:1012D000B1FA81F101F0180122FA01F0CB40C1F11D
:1012E0002001DBB2C0B2C01A2CFA01F3D11A91432B
:1012F00011EAC311E6D1704701491820ABBEFEE7E1
:101300002600020070475FEA400C08BF91F0000F12
:101310004FEA8C234FEAC12243EA51514FEA1C5055
:1013200018BF00F5F0404FEA300018BF41F000410F
:101330005FEA6C5C00F02980BCF1FF3F08BF40F021
:1013400080407047130C06BF12044FF0100C4FF092
:10135000000C130E04BF12020CF1080C130F04BF93
:1013600012010CF1040C930F04BF92000CF1020C5B
:10137000D30F04BF52000CF1010C11464FF00002D4
:10138000A0F11F00A0EB0C00704711F0004F08BF48
:10139000704731F000413FF4D5AF0B0C06BF090494
:1013A0004FF0100C4FF0000C0B0E04BF09020CF1B3
:1013B000080C0B0F04BF09010CF1040C8B0F04BFC8
:1013C00089000CF1020CCB0F04BF49000CF1010C99
:1013D000CCF12003A0EB0C0022FA03F302FA0CF28A
:1013E00041EA030100F10100704720F07F4C80EAE0
:1013F000030023F07F47ACEB070303F57C5300F0B9
:10140000004003F1FF032DE980494FEA154B09B471
:101410004FEA144325EA0B4E24EA03480FF2042650
:1014200006EB132749083E785FEA320203FB0667A2
:10143000C7F5000707FB06F64FEA54374FEAD646D2
:1014400006F1020607FB066CCCF1005C4FEA1C4774
:101450002CEA074C07FB06F40CFB06F504EB1546DB
:101460004FEA961634BF00204FF000404FEAD137C4
:1014700006FB07FC4FEA1C4C0CFB0BF7D21B03FBD3
:101480000CF761EB07010CFB0EF7B0EB074072EBBA
:1014900017420CFB08F734BFA2EB0742B2EB07423E
:1014A00061EB17414FEA0C444FEA910706FB07FC3A
:1014B0004FEA1C4C0CFB0BF7B0EBC74072EB5732FA
:1014C00003FB0CF734BFA2EBC742B2EBC74261EBA0
:1014D00057310CFB0EF7B0EBC70072EB57720CFBE9
:1014E00008F734BFA2EBC702B2EBC70261EB57713A
:1014F000039F4FEA816141EA921104EBCC044FEA69
:10150000D1374FEA826206FB07FC42EA90124FEAAB
:1015100080604FEA1C4C0CFB0BF7D21B03FB0CF753
:1015200061EB07010CFB0EF7B0EB074072EB1742C3
:101530000CFB08F734BFA2EB0742B2EB074261EBAA
:1015400017414FEA8C554FEA910704EB9C2406FBA8
:1015500007FC4FEA1C4C0CFB0BF7B0EBC74072EBDF
:10156000573203FB0CF734BFA2EBC742B2EBC742C2
:1015700061EB57310CFB0EF7B0EBC70072EB577203
:101580000CFB08F734BFA2EBC702B2EBC70261EB5A
:10159000577115EB4C254FEA816141EA92114FEAF0
:1015A00082624FEAD13742EA901206FB07FC44F10F
:1015B00000044FEA80604FEA1C4C0CFB0BF7D21B77
:1015C00003FB0CF761EB07010CFB0EF7B0EB0740D8
:1015D00072EB17420CFB08F734BFA2EB0742B2EBE9
:1015E000074261EB174115EB1C154FEA813141EAC7
:1015F00092414FEA823242EA90424FEA80304FEA0B
:101600000C7644F1000448EA03434EEA0B484FF0DD
:10161000000EB2EB080C71EB030724BF624639469B
:101620004EEB0E0E4FF0000B0018524149414BEBB0
:101630000B0BB2EB080C71EB03077BF1000B24BF23
:10164000624639464EEB0E0E4FF0000B0018524129
:1016500049414BEB0B0BB2EB080C71EB03077BF131
:10166000000B24BF624639464EEB0E0E51EA0207CC
:1016700018BF46F0010616EB0E7655F1000254F144
:10168000000103D5BDE88901BDE80088BDE88901F6
:10169000BDE80048B619524141EB0101A3F1010335
:1016A000704780807F7E7D7C7B7A797877767675CF
:1016B0007473727171706F6E6E6D6C6C6B6A6A6947
:1016C0006868676666656464636362616160605FE1
:1016D0005F5E5E5D5D5C5C5B5B5A5A59595858575A
:1016E00057565655555554545353525252515150C2
:1016F00050504F4F4F4E4E4D4D4D4C4C4C4B4B4B15
:101700004A4A4A494949484848474747474646465A
:101710004545454444444443434343424242424195
:101720004141002B26D4770021D01CB54FEA370762
:1017300003B44FF010004FF010014FF000000FBC49
:10174000BDE810400BF1010BBBF1010F08BF5FEAD0
:10175000170722BF12F1010211F101014FF0004100
:1017600043F1000300F0004043EA00007047F9D362
:101770005708DAE746EA064613F1400F4FEA1646E5
:101780001FDD13F1200FDFBF16430A46002120336F
:101790005B42C8D0C3F1200746EA064602FA07F7C3
:1017A0004FEA164646EA0706C3F1200722FA03F27B
:1017B00001FA07F721FA03F14FF0000342EA0702AA
:1017C000B1E746EA020646EA06464FEA164646EA08
:1017D0000106BCBF46EA0646360C4FF000034FF048
:1017E00000024FF000019EE72DE9C048934630B457
:1017F00091E8380007C831EA400C48BF34EA430C8E
:1018000003D5FFF7F2FDFFF78CFFF0BCBDE80088C1
:101810002DE9C048934630B491E8380007C810F06D
:10182000804F08BF13F0804F03D100F005F8FFF799
:1018300078FFF0BCBDE8008820F07F4780EA030015
:1018400023F07F4C07EB0C03A3F57C5300F0004022
:10185000A3F1FE0392F0000F00F0B38095F0000FAB
:1018600000F077802DE901494FEA11404FEA144614
:1018700021EA004800FB06FC24EA064708FB06F6BE
:1018800007FB08F800FB07F718EB06484CEB164C73
:101890004FEA124B18EB07484FEA15464CEB17403E
:1018A00022EA0B4E0BFB06FC25EA06470EFB06F66A
:1018B00007FB0EFE0BFB07F71EEB064E4CEB164C20
:1018C0004FF000061EEB074E4CEB174B18EB0B08C6
:1018D00040F1000018EB0E0B58EB000840F100003F
:1018E0008F1A4FF000013CBFC943661B14BFB5EB14
:1018F000040C00213CBFC943F61B4FEA17444EEAD3
:101900008E0E27EA04454FEA1C4704FB07622CEAC7
:10191000074C05FB07F70CFB05F604FB0CFC16EB6C
:10192000074642EB174216EB0C4642EB1C421BEB00
:10193000060658EB0202414146EA9E0601D5BDE883
:101940000189B619524141EB0101A3F10103BDE840
:1019500001894FEA14454FEA114724EA054621EA76
:10196000074C05FB07F406FB07F70CFB06F105FB2C
:101970000CFC11EB074144EB17444FEA124711EB03
:101980000C4144EB1C4422EA074C05FB07F206FB22
:1019900007F70CFB06F605FB0CFC16EB074642EBC3
:1019A000174216EB0C4642EB1C456A1854F1000135
:1019B00048BF7047B619524141EB0101A3F1010341
:1019C000704795F0000F37D04FEA11424FEA1447A5
:1019D00021EA024624EA074C02FB07F106FB07F75F
:1019E0000CFB06F402FB0CFC14EB074441EB174123
:1019F0004FEA154714EB0C4441EB1C4125EA074C18
:101A000002FB07F506FB07F70CFB06F602FB0CFCD6
:101A100016EB074645EB174516EB0C4645EB1C420B
:101A2000121951F1000148BF7047B619524141EBFC
:101A30000101A3F1010370474FEA14454FEA114732
:101A400024EA054621EA074C05FB07F106FB07F7E8
:101A50000CFB06F24FF0000605FB0CFC12EB0742F4
:101A600041EB174112EB0C4251EB1C4148BF704750
:101A7000921841EB0101A3F10103704700BFFEE79B
:101A80007047000010B50121102000F03BF90A4812
:101A9000008840F00800084908800846808A40F025
:101AA0000100888200208881084600884FF6FE7178
:101AB00008400149088010BD001000402DE9F041A8
:101AC000024600250026002000230024002791F86C
:101AD00003C00CF00F0591F803C00CF0100CBCF122
:101AE000000F03D091F802C04CEA050591F800C040
:101AF000BCF1000F31D0146800202BE04FF0010C36
:101B00000CFA00F3B1F800C00CEA03069E4220D1A3
:101B100083004FF00F0C0CFA03F7BC4305FA03FCEB
:101B20004CEA040491F803C0BCF1280F06D14FF031
:101B3000010C0CFA00FCC2F814C00AE091F803C0D2
:101B4000BCF1480F05D14FF0010C0CFA00FCC2F8B3
:101B500010C0401C0828D1D31460B1F800C0BCF1FB
:101B6000FF0F34DD546800202EE000F1080C4FF028
:101B7000010808FA0CF3B1F800C00CEA03069E4213
:101B800021D183004FF00F0C0CFA03F7BC4305FA88
:101B900003FC4CEA040491F803C0BCF1280F05D102
:101BA00000F1080C08FA0CF8C2F8148091F803C090
:101BB000BCF1480F07D100F1080C4FF0010808FAFA
:101BC0000CF8C2F81080401C0828CED35460BDE841
:101BD000F08100BFFEE710B54FF4A06000F088F878
:101BE000FFF750FF4FF4E13000F0D4FA40F2E24149
:101BF000042000F02FF810BD4CF6CC4001490860DD
:101C000070470000003000404AF6AA2001490860F1
:101C100070470000003000400149486070470000F4
:101C200000300040014988607047000000300040EB
:101C300004E000F00BF8322001F0A6FBF9E7000009
:101C400001490860704700000030004010B5FFF700
:101C5000DBFF10BD70B505460C4645F25550FFF749
:101C6000EFFF2846FFF7D8FF2046FFF7DBFFFFF71F
:101C7000CBFFFFF7C1FF70BD00BFFEE7704700005C
:101C800070B5002100230F22C47804B3154C2468DA
:101C900004F4E064C4F5E064210AC1F10403CA401D
:101CA000447804FA03F184781440214309010E4C6E
:101CB0000678A155047804F01F050124AC4005788E
:101CC0006D11AD0005F1E025C5F8004109E004788B
:101CD00004F01F050124AC40044D0678761145F848
:101CE000264070BD0CED00E000E400E080E100E083
:101CF00002490143024A1160704700000000FA05E2
:101D00000CED00E029B1064AD2690243044BDA61C6
:101D100004E0034AD2698243014BDA617047000054
:101D20000010024029B1064A92690243044B9A61AD
:101D300004E0034A92698243014B9A6170470000B4
:101D40000010024030B500210022002400232D4D58
:101D50006D6805F00C0121B1042905D0082923D1B3
:101D600005E0294D056022E0274D05601FE0254D67
:101D70006D6805F47012234D6D6805F480340225FA
:101D800005EB92421CB9214D554305600BE01D4DFA
:101D90006D6805F400351DB11C4D5543056002E02A
:101DA000194D5543056002E0174D056000BF00BFA7
:101DB000144D6D6805F0F0010909154D6B5C05685F
:101DC000DD4045600F4D6D6805F4E061090A104D76
:101DD0006B5C4568DD4085600A4D6D6805F46051B7
:101DE000C90A0B4D6B5C4568DD40C560054D6D68EB
:101DF00005F44041890B074D6B5CC568B5FBF3F5F5
:101E0000056130BD0010024000127A0000093D005B
:101E1000140000202400002010B500F001F810BDCF
:101E20000CB50020019000903348006840F48030E9
:101E30003149086000BF3048006800F4003000906D
:101E40000198401C0190009818B90198B0F5A06F56
:101E5000F1D12948006800F4003010B10120009051
:101E600001E0002000900098012843D12348006839
:101E700040F01000214908600846006820F0030087
:101E800008600846006840F0020008601A48406890
:101E9000194948600846406848600846406840F470
:101EA000806048600846406820F47C10486008461E
:101EB000406840F4E81048600846006840F08070D0
:101EC000086000BF0C48006800F000700028F9D0DE
:101ED0000948406820F00300074948600846406808
:101EE00040F00200486000BF0348406800F00C006A
:101EF0000828F9D10CBD000000100240002002406B
:101F000010B501F06BFC10BD10B51348006840F02F
:101F100001001149086008464068104908400E4910
:101F20004860084600680E4908400B4908600846AA
:101F3000006820F4802008600846406820F4FE0015
:101F400048604FF41F008860FFF766FF4FF00060A5
:101F50000449086010BD0000001002400000FFF8B6
:101F6000FFFFF6FE08ED00E010B540F225511248E3
:101F700000F048F8F0B11148FEF726FB0F4991F840
:101F80009610884203D200200C4981F896000A4836
:101F9000001D0088C1B2094890F8962090F896007C
:101FA000401C064B83F896001846815420210248B5
:101FB00000F006F810BD000000380140506300201A
:101FC00001F40072B2F5007F00D100BFCA43028065
:101FD000704721B1828942F40052828104E08289F3
:101FE0004DF6FF731A408281704702460020B1F51A
:101FF000007F00D100BF13880B400BB1012000E02F
:102000000020704770B50246002400230025002000
:1020100040F66A16B14200D100BFC1F3421501F08B
:102020001F03012606FA03F3012D02D196893340DE
:1020300006E0022D02D1168A334001E0968A334031
:102040000C12012606FA04F41688344013B10CB1C0
:10205000012000E0002070BDF0B5034600240026FA
:102060000025002040F66A17B94200D100BF18468B
:10207000C1F3421401F01F06012707FA06F5012CEF
:1020800001D10C3004E0022C01D1103000E01430FA
:102090001AB107682F43076002E00768AF43076083
:1020A000F0BD00002DE9F04786B005460E4600243D
:1020B000A24600BFA1460027B08900B100BF2F464D
:1020C0002C8A4CF6FF700440F08804432C82AC89C3
:1020D0004EF6F3100440B0883189084371890843F3
:1020E0000443AC81AC8A4FF6FF400440B0890443FE
:1020F000AC8201A8FFF726FE1F48874202D1DDF817
:1021000010A001E0DDF80CA0A88900F4004040B167
:102110000AEBCA0000EB0A1031684900B0FBF1F885
:1021200007E00AEBCA0000EB0A1031688900B0FB37
:10213000F1F86420B8FBF0F004012009642101FBF0
:102140001089A88900F4004040B1322000EBC9009A
:10215000B0FBF1F000F00700044308E0322000EB90
:1021600009106421B0FBF1F000F00F0004432C8152
:1021700006B0BDE8F087000000380140C1F3080256
:102180008280704702E0022001F0FEF8FBE700BF0A
:10219000FEE7000010B586B0044601210420FFF7D9
:1021A000C1FD01218803FFF7BDFD18208DF8170040
:1021B0004FF40070ADF8140003208DF8160005A947
:1021C0001E48FFF77BFC04208DF817000002ADF8D5
:1021D000140003208DF8160005A91848FFF76EFCBF
:1021E00001940020ADF810000C20ADF80E00002086
:1021F000ADF80C00ADF80A00ADF8080001A91048D0
:10220000FFF750FF01210E48FFF7E3FE012240F2E5
:1022100025510B48FFF720FF25208DF800000120F5
:102220008DF8030000208DF8010002208DF80200D7
:102230006846FFF725FD06B010BD0000000801400C
:10224000003801400FB430B5CBB0054601AC50A802
:10225000009001A8009A4F99FEF77AF800200090AC
:102260000BE014F8011B2846FFF788FF00BF402150
:102270002846FFF7BAFE0028F9D020780028F0D1D0
:102280004BB030BC5DF814FB490050EAC12018BFC8
:1022900004204A0D18BF40F0010040F2FF72B2EB7B
:1022A000515F08BF40F00200012808BF05207047B9
:1022B00030380A2801D20120704700207047000002
:1022C0001CB5FFF788FC0E480C2100234022CDE905
:1022D00000100CA10D4801F0E5FD0D480B21002375
:1022E0004FF40072CDE900100AA10C4801F0DAFDAC
:1022F0000BA10E48FFF7A6FF01F068F900201CBDF6
:10230000280000204957444700000000311C000805
:102310002C00002055534152540000008521000834
:10232000342E4F5353746172740D0A00003801400B
:102330002DE9F04105460E461C4807681C48006818
:10234000001D00F055FE50B91948006890F82C1097
:102350000120884017490968814316480160681CBC
:1023600038B936B112480168091D134800F07EFEE5
:102370001AE07C190E4800684460BC4207D20C4841
:102380000168091D0D48006800F056FE0CE0084881
:102390000168091D0A48006800F04EFE09480068FF
:1023A000844201D207480460BDE8F0814400002067
:1023B00030000020480000201403002038000020D6
:1023C000340000206000002010B5044600F05AFEE2
:1023D00024480068401C234908602348006840B92D
:1023E000214804600846006801280DD100F0F0F98A
:1023F0000AE01E48006838B91B480068C06AE16AF4
:10240000884201D81848046019480068401C1849DF
:10241000086008460068606494F82C100120884029
:1024200014490968084313490860E16A01EB810116
:10243000114A02EB8100211D00F018FE00F06AFE37
:102440000A48006868B108480068C06AE16A8842C2
:1024500007D24FF0805009490860BFF34F8FBFF398
:102460006F8F10BD40000020300000204C00002085
:102470005C00002048000020E400002004ED00E0A3
:1024800010B500F0FFFD10480068D0B90F4800F00B
:10249000C3FD0F4800F0C0FD0C480E4908600C4811
:1024A0000D49086000221021052001F0B1F906490C
:1024B00008600846006820B108A10348006800F0E1
:1024C00027FF00F027FE10BD740000202803002025
:1024D0003C0300206C00002070000020546D7251FD
:1024E0000000000070B523E001F0CAF8134800684E
:1024F00008B9012000E00020054601F099FEBDB9B1
:1025000000F0C0FD0D48C068C468201D00F070FDDB
:102510000B480068401E0A4908600A480068401ECF
:102520000849086000F0F6FD204600F060F800BFA2
:10253000044800680028D7D170BD000000030020C7
:10254000400000203C00002070B504460D46206C81
:1025500070B1216CE0680844E0606168E06888421E
:1025600001D32068E0602846226CE168FEF74BF852
:1025700070BD2DE9F04104460F4615464FF00008A6
:10258000A66B206C40B9206860BB606801F084FDD8
:1025900080460020606025E07DB93946226CA06845
:1025A000FEF731F8216CA0680844A060D4E901105E
:1025B000884217D32068A06014E03946226CE06896
:1025C000FEF721F8216CE068401AE0602168E068BD
:1025D000884203D2216C6068401AE060022D01D16C
:1025E00006B1761E701CA0634046BDE8F08110B5B0
:1025F0000446206B00F0CAFD204600F0C7FD10BD68
:102600000146084A126812680AB9012200E0002255
:102610000A600A6822B9034A1268D268106800E0AA
:10262000002070476C00002030B54FF4C0431748BD
:1026300000F007042CB1C01D20F00700134C041B50
:102640001B1B0246124C22600024114D6C60D018F6
:10265000083820F007000F4C206000240D4D2D6835
:102660006C600C4D2D682C601146441A4C60094C6E
:1026700024680C60084D4C682C60084D4C682C6038
:102680004FF00044064D2C6030BD00005003002088
:102690008C000020940000209C0000209800002066
:1026A000A000002000BFFFF71DFF064800680128BA
:1026B000F9D94FF0805004490860BFF34F8FBFF342
:1026C0006F8FF0E7E400002004ED00E02DE9F04119
:1026D00006460D4617469846069C0DB9246000E054
:1026E0002760E66325640121204601F0B7F984F8EC
:1026F00050800020A064BDE8F08100002DE9F05F6B
:1027000082460F4690469B460A9E0C9C4FEA8801E3
:10271000A522206BFDF7BCFFA8F10100216B01EBA6
:10272000800929F0070909F0070008B9012000E035
:10273000002030B940F22B331BA220A12348FFF721
:1027400081FD002507E0795D04F134004155785D95
:1027500000B902E06D1C102DF5D300BF002143200D
:102760000155182E00D31726E662E6640020206586
:10277000201D00F05EFC04F1180000F05AFC2461FA
:10278000C6F11800A06164620020606584F85800FA
:102790005A465146484600F019FC20600B9808B193
:1027A0000B980460BDE8F09F2E2E5C467265655262
:1027B000544F535C7461736B732E63004572726F78
:1027C000723A25732C25640D0A0000000038014080
:1027D00010B5002407E004EB84010F4A02EB8100EE
:1027E00000F01AFC641C182CF5D30C4800F014FC03
:1027F0000B4800F011FC0B4800F00EFC0A4800F0FA
:102800000BFC0A4800F008FC044809490860044829
:102810000849086010BD0000E4000020C402002048
:10282000D8020020EC020020000300201403002046
:10283000340000203800002010B50146164800E0A2
:10284000006803688B42FBD30246436813448B4203
:1028500004D143684C682344436001460A464B68F0
:1028600013440468A34211D10C4C03682468A342AA
:1028700008D04B680468646823444B6003681B6895
:102880000B6005E0054B1B680B6001E003680B6003
:10289000884200D0016010BD8C0000209400002010
:1028A0002DE9F04104460D4616461F464FF000083C
:1028B00065602461B5420CD8F01BA169884202D33F
:1028C0004FF0010811E0211D0948006800F0B4FB39
:1028D0000BE0BE4204D2BD4202D34FF0010804E037
:1028E000211D0448006800F0A7FB4046BDE8F081C8
:1028F000700000206C00002070B5054600F0C2FB9F
:10290000A86B08B9012400E0002400F003FC204675
:1029100070BD70B5054600F0B5FBA86BE96B884249
:1029200001D1012400E0002400F0F4FB204670BD3A
:102930002DE9F3410D460098846C002734B940F628
:10294000CE131BA21FA12348FFF77CFCA06BE16BF9
:10295000884201D2012000E0002030B940F6CF13B8
:1029600013A218A11B48FFF76DFCA06BE16B884216
:102970001BD294F945602A4669462046FFF7F9FDC7
:102980000746701C60B9606A08B9012000E00020A9
:1029900050B904F1240001F0EFFB28B1012703E056
:1029A000701C40B284F8450000BF3846BDE8FC8189
:1029B0002E2E5C4672656552544F535C7175657579
:1029C000652E63004572726F723A25732C25640D73
:1029D0000A00000000380140F8B505460F461448CB
:1029E0000068C068C468201D00F002FBE06901288F
:1029F00019D1A06941192B463A462046FFF750FFEE
:102A000088B1002003462A4601460090204601F086
:102A1000DFFC064636B94FF4027306A20BA10F483D
:102A2000FFF710FC00BF2046616A8847F8BD000030
:102A30006C0000202E2E5C4672656552544F535C2C
:102A400074696D6572732E63000000004572726FC9
:102A5000723A25732C25640D0A00000000380140ED
:102A6000F0B587B073E0039800280DDA04AE36B9EC
:102A700040F2E7233BA241A14448FFF7E3FBD6E93C
:102A80000020B168904700BF039800285FDB059CD9
:102A9000606908B9012000E0002010B9201D00F095
:102AA000A7FA02A800F0CAF8054603980A284CD2F3
:102AB000DFE800F00905072D2F4706082E3000BF7C
:102AC00000BF00BF00BF0498A269811803462A46D0
:102AD0002046FFF7E5FEC8B12046616A8847E069F5
:102AE000012813D1002000900498A1694218002306
:102AF0001946204601F06CFC074637B940F22133F5
:102B000018A21EA12148FFF79DFB00BF1EE000BFD9
:102B10001CE000BF0498A061A06908B1012000E09A
:102B2000002030B94FF44E730EA214A11748FFF7DE
:102B300089FBA06941192B462A462046FFF7B0FEC3
:102B400004E0204600F022FB00E000BF00BF0023AD
:102B50001A4603A90E48006800F096FE002882D1AC
:102B600007B0F0BD2E2E5C4672656552544F535C23
:102B700074696D6572732E63000000004572726F98
:102B8000723A25732C25640D0A00000000380140BC
:102B900074000020F8B505460C4600F071FD68464B
:102BA00000F04CF80646009820BB44B9B54206D860
:102BB00001F03EFB31462846FFF70EFF1CE03CB11A
:102BC0000E480068006808B9012000E000200446B3
:102BD000A91B22460A48006800F0B0FB01F028FB60
:102BE00050B94FF0805007490860BFF34F8FBFF3D3
:102BF0006F8F01E001F01CFBF8BD000070000020A9
:102C00007400002004ED00E00A490968096809B968
:102C1000012100E0002121B14FF0FF31064A11608F
:102C200006E004490968C968C868034A4168116038
:102C300070470000340000206000002070B504469A
:102C400001F070F9054607480068854204D200F09B
:102C50000BF80120206001E00020206001480560A1
:102C6000284670BD7C0000202DE9F8432EE0224864
:102C70000068C068056820480068C068C468201DF6
:102C800000F0B6F92046616A8847E06901281DD145
:102C9000A0694619AE4207D966602461211D164815
:102CA000006800F0C9F911E0002003462A460146F9
:102CB0000090204601F08CFB074637B940F2923372
:102CC0000EA214A11748FFF7BDFA00BF0A4800681A
:102CD000006808B9012000E000200028C7D006489D
:102CE000D0F8008010480068034908600E48C0F81A
:102CF0000080BDE8F88300006C0000202E2E5C46AA
:102D000072656552544F535C74696D6572732E63BE
:102D1000000000004572726F723A25732C25640D15
:102D20000A00000000380140700000200C480068D4
:102D3000401C08B9012000E0002028B9F42309A2B2
:102D400013A11748FFF77EFA00BF502080F31188C7
:102D5000BFF34F8FBFF36F8F00BF00BFFEE70000D0
:102D6000800000202E2E5C4672656552544F535CE5
:102D7000706F727461626C655C525644535C415270
:102D80004D5F434D335C706F72742E630000000022
:102D90004572726F723A25732C25640D0A0000008B
:102DA0000038014008B500BF6846FFF729FC04461B
:102DB00020460099FFF7EEFEFFF752FEF4E770B5EC
:102DC000044600F05FF994F945501AE0A06C38B160
:102DD00000212046FFF7ACFD88B100F013FB0EE0A8
:102DE000606A08B9012000E0002038B904F124002D
:102DF00001F0C2F918B100F005FB00E003E0681E25
:102E000045B2002DE2DC00BFFF2084F8450000F051
:102E100081F900F037F994F9445010E0206908B9BD
:102E2000012000E0002048B904F1100001F0A4F9ED
:102E300008B100F0E7FA681E45B200E001E0002D9D
:102E4000ECDC00BFFF2084F8440000F063F970BDA3
:102E50002DE9F04104464FF0000800F011FC3F4816
:102E6000006808B9FFF7E0FB3D48006820400028F3
:102E700061D1ACB1083404F0070088B104F0070058
:102E8000C0F10800044404F0070008B9012000E084
:102E9000002028B9BF2333A23CA14048FFF7D2F954
:102EA000002C48D03E480068844244D83D4E30460D
:102EB000056801E02E462D686868A04202D22868A5
:102EC0000028F7D125480068854234D0306800F1E9
:102ED0000808286830606868001B102814D92F196A
:102EE00007F0070008B9012000E0002028B9EC2312
:102EF0001CA226A12948FFF7A5F96868001B786085
:102F00006C603846FFF798FC254968680968081A1C
:102F1000234908600846006823490968884203D2AB
:102F20001F480068204908600D496868096808431F
:102F300068600020286001F07BF908F0070008B9FC
:102F4000012000E0002030B94FF4967305A20FA1D4
:102F50001248FFF777F94046BDE8F0819400002061
:102F6000A00000202E2E5C4672656552544F535CC3
:102F7000706F727461626C655C4D656D4D616E67FA
:102F80005C686561705F342E630000004572726F8B
:102F9000723A25732C25640D0A00000000380140A8
:102FA000980000208C0000209C000020064800684B
:102FB00030B10549096801F15000096D491C0160F3
:102FC000014800687047000030000020001F4FF0EB
:102FD00080730360001F21F001030360001F034B97
:102FE0000360143802602038704700002D2D00085F
:102FF00001460A69D1E901309860D1E901035860BE
:103000005068884201D188685060002008611068CB
:10301000401E10601068704700F1080141604FF0D9
:10302000FF31816000F10801C16001610021016090
:10303000704700210161704710B502460B685C1CA7
:103040000CB9106907E002F1080000E0406844682C
:1030500024689C42FAD944684C604C68A16088603E
:1030600041600A611468641C146010BD42684A60C3
:1030700093688B60936859609160086103685B1C7A
:103080000360704710B500BF502080F31188BFF374
:103090004F8FBFF36F8F00BF0C480068401C0B4977
:1030A00008600846006801280ED109480068C0B2CF
:1030B00008B9012000E0002030B94FF4BD7305A22B
:1030C0000FA11348FFF7BEF810BD000080000020DC
:1030D00004ED00E02E2E5C4672656552544F535C41
:1030E000706F727461626C655C525644535C4152FD
:1030F0004D5F434D335C706F72742E6300000000AF
:103100004572726F723A25732C25640D0A00000017
:103110000038014010B50C48006830B940F2811306
:103120000AA215A11848FFF78DF807480068401E4D
:10313000054908600846006820B9002080F311881E
:1031400000BF00BF10BD0000800000202E2E5C4696
:1031500072656552544F535C706F727461626C6536
:103160005C525644535C41524D5F434D335C706F2B
:1031700072742E63000000004572726F723A2573FC
:103180002C25640D0A0000000038014070B5064689
:103190003546002E37D0083D2C461B49606809682B
:1031A000084008B1012000E0002030B94FF4A073BE
:1031B00016A220A12348FFF745F8206808B901208E
:1031C00000E0002030B940F2411310A219A11D48BF
:1031D000FFF738F80C4960680968084098B1206822
:1031E00088B90949606809688843606000F048FA56
:1031F0001549606809680844134908602046FFF7CC
:103200001BFB01F015F870BDA00000202E2E5C46BF
:1032100072656552544F535C706F727461626C6575
:103220005C4D656D4D616E675C686561705F342EE5
:10323000630000004572726F723A25732C25640D8D
:103240000A0000000038014098000020054800688E
:10325000C821B0FBF1F0401E4FF0E021486107208B
:10326000086170470000002070B5FDF74DF8054675
:10327000102D12D305F1E02090F8F04311480078AA
:10328000844201DB012000E0002030B94FF42A73B2
:103290000DA218A11B48FEF7D5FF1B48006800F4DB
:1032A000E0601A490968884201D8012000E0002046
:1032B00030B94FF42E7304A20EA11248FEF7C2FFDC
:1032C00070BD0000840000202E2E5C4672656552A1
:1032D000544F535C706F727461626C655C525644FB
:1032E000535C41524D5F434D335C706F72742E637B
:1032F000000000004572726F723A25732C25640D30
:103300000A000000003801400CED00E088000020B9
:10331000024600200BE0084B53F8303033B9064B1F
:1033200043F8301003EBC0035A6002E0401C082849
:10333000F1D300BF70470000A40000202DE9F04148
:1033400005460E4617462C46FFF79CFE94F94400AE
:10335000401C10B9002084F8440094F94500401C3A
:1033600010B9002084F84500FFF7D4FEA06B28B9FF
:103370003A46314604F1240000F076F82046FFF783
:103380001EFDBDE8F081000070B504460025B4B113
:103390001048006808B9012000E0002030B940F270
:1033A000CF430DA211A11548FEF74CFF00F068F9BC
:1033B00000212046FEF7BCFF00F03AFF05463DB96C
:1033C0004FF080500E490860BFF34F8FBFF36F8FEF
:1033D00070BD0000680000202E2E5C4672656552AC
:1033E000544F535C7461736B732E63004572726F3C
:1033F000723A25732C25640D0A0000000038014044
:1034000004ED00E0012001490860704754000020ED
:1034100070B504460D4634B940F6063307A20CA138
:103420000F48FEF70FFF0F48016818312046FFF7DD
:1034300003FE01212846FEF77BFF70BD2E2E5C4661
:1034400072656552544F535C7461736B732E6300E5
:103450004572726F723A25732C25640D0A000000C4
:10346000003801403000002070B505460E46144675
:1034700035B940F6313309A20DA11148FEF7E2FE3D
:103480001048016818312846FFF7F0FD0CB14FF0E5
:10349000FF3621463046FEF74BFF70BD2E2E5C46B0
:1034A00072656552544F535C7461736B732E630085
:1034B0004572726F723A25732C25640D0A00000064
:1034C000003801403000002070B505462C46002D24
:1034D0004BD02649E06A0968C96A884245D2A0698A
:1034E00000F0004028B921480068C06AC0F1180007
:1034F000A061E16A01EB81011D4A02EB8101606973
:10350000884201D1012000E0002050B3201DFFF7C8
:103510006FFD78B9E06A00EB8000154951F8200092
:1035200040B994F82C100120884012490968814361
:10353000104801600D480068C06AE06294F82C10E1
:10354000012088400B49096808430A490860E16A7C
:1035500001EB8101064A02EB8100211DFFF786FD88
:1035600003E002480068C06AE06270BD30000020DD
:10357000E40000204800002010B5044634B940F6AD
:10358000C13306A20AA10E48FEF75CFE0D48006892
:1035900020600D480068606010BD00002E2E5C4663
:1035A00072656552544F535C7461736B732E630084
:1035B0004572726F723A25732C25640D0A00000063
:1035C0000038014058000020440000201CB51B4872
:1035D00000210B468222CDE9001019A11A4800F003
:1035E00061FC0446012C02D100F0B4FE0446012C1B
:1035F00015D100BF502080F31188BFF34F8FBFF368
:103600006F8F00BF4FF0FF30104908600120104954
:10361000086000200F49086000F090F80CE0601C82
:1036200008B1012000E0002030B940F284730AA202
:103630000EA11248FEF706FE1CBD0000640000202B
:1036400049444C4500000000A52600086000002009
:103650004C000020440000202E2E5C46726565520E
:10366000544F535C7461736B732E63004572726FB9
:10367000723A25732C25640D0A00000000380140C1
:1036800002480068401C014908607047680000203B
:1036900010B51B48006818B101201A4908602EE0D7
:1036A00000201849086018480068B0FA80F0C0F19E
:1036B0001F0404EB8400154951F8200008B10120D3
:1036C00000E0002030B940F6F62311A215A11948F8
:1036D000FEF7B8FD04EB84010C4A02EB810041685F
:1036E0004968416000F1080142688A4202D141689C
:1036F000496841604168C9680F4A116000BF10BD48
:10370000680000205400002048000020E400002051
:103710002E2E5C4672656552544F535C7461736B18
:10372000732E63004572726F723A25732C25640DF7
:103730000A00000000380140300000201CB522487B
:10374000014609780191FF2102461170014609786E
:1037500000919DF8001001F050011C4A11700721E2
:103760001B4A116009E01A490968491E184A11608C
:103770009DF800104906090E00919DF8001001F017
:1037800080018029EFD0124909680902104A1160AE
:103790001146098801F4E06111600B4A019911702A
:1037A0000C48006840F470000A4908600846006848
:1037B00040F070400860FFF749FD002006490860AE
:1037C000FCF76CFD00201CBD00E400E0840000203C
:1037D0008800002020ED00E08000002010B500BF30
:1037E000502080F31188BFF34F8FBFF36F8F00BF5E
:1037F00000F09EFB18B14FF080500449086000BFF4
:10380000002080F3118800BF10BD000004ED00E02F
:103810002DE9F84305460E4690460DB1012000E023
:10382000002030B94FF4C4730DA212A11548FEF761
:1038300009FD0EB9002701E005FB06F707F154006A
:10384000FFF706FB044644B104F1540943464A46D7
:10385000314628460094FEF739FF2046BDE8F8833C
:103860002E2E5C4672656552544F535C71756575BA
:10387000652E63004572726F723A25732C25640DB4
:103880000A000000003801402DE9FF4782B00546DC
:103890000E461F464FF0000A2C4634B940F2DC4376
:1038A00063A268A16B48FEF7CDFC0EB9206C08B985
:1038B000012000E0002030B940F2DD435CA261A1AC
:1038C0006448FEF7BFFC00F01DFB08B9049808B976
:1038D000012000E0002030B94FF49C6354A259A1AC
:1038E0005C48FEF7AFFC00BFFFF7CCFBD4F8389084
:1038F000B9F1000F3DD0D4F80C8031462046FEF7D8
:1039000023FEDFB9A9F10100A063206810B9FFF719
:103910004DFB6060206908B9012000E0002010BB69
:1039200004F1100000F028FCE8B14FF080504A4943
:103930000860BFF34F8FBFF36F8F14E0C4F80C80A3
:10394000606A08B9012000E0002060B904F1240099
:1039500000F012FC38B14FF080503F490860BFF3CF
:103960004F8FBFF36F8FFFF7D5FB012006B0BDE887
:10397000F087049818B9FFF7CDFB0020F6E7BAF1FD
:10398000000F04D16846FFF7F7FD4FF0010AFFF77B
:10399000C1FBFFF775FEFFF775FB94F94400401C6F
:1039A00010B9002084F8440094F94500401C10B977
:1039B000002084F84500FFF7ADFB04A9684600F03D
:1039C0001DFA40BB2046FEF797FFF0B1206830B9E2
:1039D000FFF758FB6068FFF777FDFFF79BFB04F1EB
:1039E00024000499FFF714FD2046FFF7E8F900F0E2
:1039F0001FFC00287FF478AF4FF080501649086014
:103A0000BFF34F8FBFF36F8F6EE72046FFF7D7F9F5
:103A100000F00EFC68E72046FFF7D1F900F008FC43
:103A20002046FEF769FF0028EED000209EE7000048
:103A30002E2E5C4672656552544F535C71756575E8
:103A4000652E63004572726F723A25732C25640DE2
:103A50000A0000000038014004ED00E070B50546A2
:103A60000E462C4634B940F21B131FA223A127484F
:103A7000FEF7E8FBFFF706FBD4E90F12206801FB15
:103A8000020060600020A0632068A060E06B401E20
:103A9000226C216800FB0210E060FF2084F84400E3
:103AA00084F845009EB9206908B9012000E0002093
:103AB000A8B904F1100000F05FFB80B14FF0805016
:103AC00013490860BFF34F8FBFF36F8F07E004F116
:103AD0001000FFF7A1FA04F12400FFF79DFAFFF7A9
:103AE00019FB012070BD00002E2E5C4672656552E8
:103AF000544F535C71756575652E63004572726F26
:103B0000723A25732C25640D0A000000003801402C
:103B100004ED00E02DE9FF4383B0064688461D46CC
:103B20004FF00009344634B940F2D92362A267A1AC
:103B30006A48FEF787FBB8F1000F01D1206C08B985
:103B4000012000E0002030B940F2DA235AA25FA140
:103B50006248FEF777FB022D02D1E06B012801D10C
:103B6000012000E0002030B940F2DB2352A257A12F
:103B70005A48FEF767FB00F0C5F908B9059808B97F
:103B8000012000E0002030B940F2DE234AA24FA11C
:103B90005248FEF757FB00BFFFF774FAA06BE16BCA
:103BA000884201D3022D38D12A4641462046FEF7ED
:103BB000E0FC0746A06C68B129462046FEF7B8FE37
:103BC00028B34FF0805046490860BFF34F8FBFF3D2
:103BD0006F8F1CE0606A08B9012000E0002068B91E
:103BE00004F1240000F0C8FA88B14FF080503C493D
:103BF0000860BFF34F8FBFF36F8F08E03FB14FF006
:103C0000805037490860BFF34F8FBFF36F8FFFF7C6
:103C100081FA012007B0BDE8F083059818B9FFF7D5
:103C200079FA0020F6E7B9F1000F04D101A8FFF7F7
:103C3000A3FC4FF00109FFF76DFAFFF721FDFFF735
:103C400021FA94F94400401C10B9002084F8440083
:103C500094F94500401C10B9002084F84500FFF796
:103C600059FA05A901A800F0C9F8F0B92046FEF7F5
:103C700050FEA0B104F110000599FFF7C9FB2046E2
:103C8000FFF79DF800F0D4FA002885D14FF080505E
:103C900013490860BFF34F8FBFF36F8F7CE7204657
:103CA000FFF78DF800F0C4FA76E72046FFF787F8B3
:103CB00000F0BEFA0020ADE72E2E5C46726565521C
:103CC000544F535C71756575652E63004572726F54
:103CD000723A25732C25640D0A000000003801405B
:103CE00004ED00E02DE9F05F80468A4615461E4649
:103CF000444634B940F29F3336A23BA13E48FEF71A
:103D0000A1FABAF1000F01D1206C08B9012000E03E
:103D1000002030B94FF468732EA233A13648FEF765
:103D200091FA022E02D1E06B012801D1012000E0BE
:103D3000002030B940F2A13326A22BA12E48FEF775
:103D400081FAFFF791FA00BF5021EFF3118081F360
:103D50001188BFF34F8FBFF36F8F00BF0746A06B73
:103D6000E16B884201D3022E2BD194F945B0324643
:103D700051462046FEF7FDFB0BF10100C8B9A06CCF
:103D800040B131462046FEF7D3FDB8B1B5B10120B0
:103D9000286013E0606A08B9012000E0002068B9DB
:103DA00004F1240000F0E8F940B13DB101202860A1
:103DB00004E00BF1010040B284F845004FF0010926
:103DC00001E04FF0000900BF87F3118800BF4846AB
:103DD000BDE8F09F2E2E5C4672656552544F535CD1
:103DE00071756575652E63004572726F723A257341
:103DF0002C25640D0A000000003801402DE9F04137
:103E000004460D4634B940F6CB331AA21EA122480F
:103E1000FEF718FA35B940F6CC3316A21AA11E489F
:103E2000FEF710FAFFF72EF91C4807682868401CB7
:103E300008B9002619E01A4920680968884204D0A8
:103E40006068B84201D801260FE06068381A296816
:103E5000884209D228686168791A401A2860204689
:103E6000FFF78AFB002600E00126FFF753F93046F2
:103E7000BDE8F0812E2E5C4672656552544F535C4E
:103E80007461736B732E63004572726F723A25739F
:103E90002C25640D0A000000003801404400002079
:103EA000580000202DE9FF4F85B08046894617460F
:103EB000DDE912ABB800FEF7CBFF064656B15C2039
:103EC000FEF7C6FF04460CB1266304E03046FFF758
:103ED0005DF900E000247CB10020CDE900ABCDE924
:103EE00002403A4649464046089BFEF707FC2046FA
:103EF000FEF76AFA012501E04FF0FF35284609B0C8
:103F0000BDE8F08F0549096809B9012005E00449B9
:103F1000096809B9022000E0002070474C00002029
:103F20006800002001490868704700004400002034
:103F30002DE9F0414FF0000842480068002873D195
:103F400041480068451C40480560F5B93F48006895
:103F5000006808B9012000E0002030B940F6D9130C
:103F60003BA240A14348FEF76DF938480768424834
:103F70000068364908604048076040480068401CB7
:103F80003E490860FEF740FE00BF3D48006885429C
:103F90003CD300BF2D480068006808B9012000E04C
:103FA000002020B14FF0FF30354908602DE0274850
:103FB0000068C068C4686668B54202D230480660CE
:103FC00023E0201DFFF714F8A06A18B104F11800CF
:103FD000FFF70EF894F82C10012088402949096851
:103FE000084328490860E16A01EB8101264A02EB97
:103FF0008100211DFFF73AF82449E06A0968C96A7F
:104000008842C7D34FF00108C4E700BF1F480068CB
:10401000C06A00EB80001C4951F82000012801D93A
:104020004FF0010805E0FFE719480068401C1849F7
:1040300008601848006808B14FF001084046BDE824
:10404000F0810000680000204400002034000020BF
:104050002E2E5C4672656552544F535C7461736BCF
:10406000732E63004572726F723A25732C25640DAE
:104070000A000000003801403800002058000020ED
:104080006000002048000020E400002030000020F4
:10409000500000205400002070B505462C46002634
:1040A000002D4DD027480068844201D1012000E056
:1040B000002030B940F6C76323A228A12B48FEF7A1
:1040C000C1F8206D30B940F6C9631FA223A127486B
:1040D000FEF7B8F8206D401E2065E16CE06A88426A
:1040E0002ED0206D60BB201DFEF782FF78B9E06AFC
:1040F00000EB80001E4951F8200040B994F82C10C4
:10410000012088401B49096881431A480160E06C1E
:10411000E062E06AC0F11800A06194F82C10012060
:10412000884014490968084312490860E16A01EBB4
:1041300081010F4A02EB8100211DFEF797FF012646
:10414000304670BD300000202E2E5C4672656552F0
:10415000544F535C7461736B732E63004572726FBE
:10416000723A25732C25640D0A00000000380140C6
:10417000E40000204800002070B50646F068C468DE
:1041800034B940F661331AA21EA12248FEF75AF84C
:1041900004F11800FEF72CFF1F480068A8B9201D85
:1041A000FEF726FF94F82C10012088401B4909686F
:1041B00008431A490860E16A01EB8101184A02EBE1
:1041C0008100211DFEF752FF04E004F1180115489B
:1041D000FEF74CFF1449E06A0968C96A884204D9AD
:1041E000012501201149086000E00025284670BD26
:1041F0002E2E5C4672656552544F535C7461736B2E
:10420000732E63004572726F723A25732C25640D0C
:104210000A0000000038014068000020480000202B
:10422000E4000020EC0200203000002054000020B8
:1042300070B5002400263448006830B94FF4FD639F
:1042400032A237A13A48FDF7FDFFFEF71BFF2E48CB
:104250000068401E2C4908600846006800284FD1BD
:104260003448006800284BD024E03348C068C46854
:1042700004F11800FEF7BCFE201DFEF7B9FE94F80D
:104280002C10012088402D49096808432B490860FB
:10429000E16A01EB81012A4A02EB8100211DFEF750
:1042A000E5FE2849E06A0968C96A884202D301200C
:1042B000254908602048006808B9012000E0002076
:1042C0000028D2D00CB1FEF79FFC2048056865B1EC
:1042D00000BFFFF72DFE10B101201B4908606D1EC5
:1042E000002DF6D10020194908601748006838B140
:1042F0000126300716490860BFF34F8FBFF36F8F59
:10430000FEF708FF304670BD680000202E2E5C4688
:1043100072656552544F535C7461736B732E630006
:104320004572726F723A25732C25640D0A000000E5
:104330000038014040000020EC020020480000202E
:10434000E400002030000020540000205000002035
:1043500004ED00E01CB50024FEF792F80C4800685C
:1043600058B10C48172100234FF48272CDE9001098
:1043700009A10B48FFF796FD044634B940F2331308
:1043800008A20EA11148FDF75DFF20461CBD0000EC
:104390007400002078000020546D72205376630072
:1043A000A52D00082E2E5C4672656552544F535C55
:1043B00074696D6572732E63000000004572726F40
:1043C000723A25732C25640D0A0000000038014064
:1043D0002DE9FF4704460D4616461F46DDF830809E
:1043E0004FF0000934B94FF4D37317A21CA1204831
:1043F000FDF728FF1F48006810B30095019602944E
:10440000062D15DAFFF77EFD022808D1002342466B
:10441000694618480068FFF77DFB814610E00023DD
:104420001A46694613480068FFF774FB814607E0A7
:1044300000233A4669460F480068FFF753FC81465F
:10444000484604B0BDE8F0872E2E5C467265655282
:10445000544F535C74696D6572732E6300000000E5
:104460004572726F723A25732C25640D0A000000A4
:10447000003801407400002010B500290AD00878E7
:10448000002807D005487844FCF7F6FE002801D044
:10449000002010BD0248784410BD00004601000015
:1044A0003E01000010B500290AD00878002807D086
:1044B00005487844FCF7E0FE002801D0002010BD3C
:1044C0000248784410BD0000360100002E010000B3
:1044D000FCF752BC040000080000000000000002CD
:1044E00000010000100000000000000000000000BB
:1044F000303132333435363738394142434445461A
:104500004030580030313233343536373839616213
:10451000636465664030780002400000000000A03F
:104520000000000005400000000000C8000000007E
:104530000C4000000000409C0000000019400000FA
:104540000020BCBE0000000034400000BFC91B8E2C
:1045500000000004B5400000504BCFD06607E2CF0A
:10456000010000006C4100003E8251AADFEEA7343A
:1045700001000000D9420000DCB5A0E23A301F97EC
:10458000FFFFFFFFB4450000FD25A0C8E9A3C14F10
:10459000FFFFFFFFFF3F0000000000800000000061
:1045A000FF3F00000000008000000000F846000807
:1045B00000000020A40000006C0100089C470008D7
:1045C000A4000020A4690000880100081C0000006D
:1045D00043000000F8FFFFFF0C0000000E00000089
:1045E0000F0000002E00000010010000430000003A
:1045F000F8FFFFFF00404040404040404040414104
:1046000041414140404040404040404040404040A7
:104610004040404040050202020202020202020241
:10462000020202020220202020202020202020023E
:1046300002020202020290909090909010101010CE
:10464000101010101010101010101010101010106A
:1046500002020202020288888888888808080808FE
:1046600008080808080808080808080808080808CA
:1046700002020202400000000000000000000000F2
:10468000000000000000000000000000000000002A
:10469000000000000000000000000000000000001A
:1046A000000000000000000000000000000000000A
:1046B00000000000000000000000000000000000FA
:1046C00000000000000000000000000000000000EA
:1046D00000000000000000000000000000000000DA
:1046E00000000000000000000000000000000000CA
:1046F000000000000000000000A24A0400000000CA
:104700000000000001020304060708090000000081
:104710000102030401020304060708090204060853
:104720000000000000000000000000000000000089
:104730000000000000000000000000000000000079
:104740000000000000000000000000000000000069
:104750000000000000000000000000000000000059
:104760000000000000000000000000000000000049
:104770000000000000000000AAAAAAAA0000000091
:104780000000000000000000000000000000000029
:0C4790000000000000000000000000001D
:0400000508000131BD
:00000001FF
